{
  "contractName": "MyMessage",
  "abi": [
    {
      "constant": false,
      "inputs": [
        {
          "name": "message",
          "type": "string"
        }
      ],
      "name": "setMessage",
      "outputs": [],
      "payable": true,
      "stateMutability": "payable",
      "type": "function"
    },
    {
      "constant": true,
      "inputs": [],
      "name": "getMessage",
      "outputs": [
        {
          "name": "",
          "type": "string"
        }
      ],
      "payable": false,
      "stateMutability": "view",
      "type": "function"
    },
    {
      "constant": true,
      "inputs": [],
      "name": "getBalance",
      "outputs": [
        {
          "name": "",
          "type": "uint256"
        }
      ],
      "payable": false,
      "stateMutability": "view",
      "type": "function"
    }
  ],
  "bytecode": "0x608060405234801561001057600080fd5b5061031a806100206000396000f300608060405260043610610057576000357c0100000000000000000000000000000000000000000000000000000000900463ffffffff16806312065fe01461005c578063368b877214610087578063ce6d41de146100e3575b600080fd5b34801561006857600080fd5b50610071610173565b6040518082815260200191505060405180910390f35b6100e1600480360381019080803590602001908201803590602001908080601f016020809104026020016040519081016040528093929190818152602001838380828437820191505050505050919291929050505061017d565b005b3480156100ef57600080fd5b506100f86101a7565b6040518080602001828103825283818151815260200191508051906020019080838360005b8381101561013857808201518184015260208101905061011d565b50505050905090810190601f1680156101655780820380516001836020036101000a031916815260200191505b509250505060405180910390f35b6000600154905090565b8060009080519060200190610193929190610249565b503460016000828254019250508190555050565b606060008054600181600116156101000203166002900480601f01602080910402602001604051908101604052809291908181526020018280546001816001161561010002031660029004801561023f5780601f106102145761010080835404028352916020019161023f565b820191906000526020600020905b81548152906001019060200180831161022257829003601f168201915b5050505050905090565b828054600181600116156101000203166002900490600052602060002090601f016020900481019282601f1061028a57805160ff19168380011785556102b8565b828001600101855582156102b8579182015b828111156102b757825182559160200191906001019061029c565b5b5090506102c591906102c9565b5090565b6102eb91905b808211156102e75760008160009055506001016102cf565b5090565b905600a165627a7a723058208a738c95a696c81d40cf0471371668cf07abaab564443c3343239e0929f1908c0029",
  "source": "pragma solidity ^0.4.24;\r\n\r\ncontract MyMessage {\r\n    string myMessage;\r\n    uint balance;\r\n    function setMessage(string message) public payable {\r\n        myMessage = message;\r\n        balance += msg.value;\r\n    }\r\n    function getMessage() public view returns(string) {\r\n        return myMessage;\r\n    }\r\n    function getBalance() public view returns(uint) {\r\n        return balance;\r\n    }\r\n}",
  "sourcePath": "C:\\Users\\17275\\udacity-blockchain-degree\\ethereum-messenger\\contracts\\MyMessage.sol",
  "compiler": {
    "name": "solc",
    "version": "0.4.26+commit.4563c3fc.Emscripten.clang"
  },
  "schemaVersion": "3.4.3",
  "updatedAt": "2021-12-18T18:09:12.132Z",
  "networkType": "ethereum",
  "devdoc": {
    "methods": {}
  },
  "userdoc": {
    "methods": {}
  }
}